{
  "contractName": "SmartContractVerificator",
  "abi": [
    {
      "inputs": [
        {
          "internalType": "address",
          "name": "_smartContract",
          "type": "address"
        }
      ],
      "stateMutability": "payable",
      "type": "constructor"
    },
    {
      "anonymous": false,
      "inputs": [],
      "name": "TesterJoins",
      "type": "event"
    },
    {
      "anonymous": false,
      "inputs": [],
      "name": "TesterLeaves",
      "type": "event"
    },
    {
      "anonymous": false,
      "inputs": [
        {
          "indexed": true,
          "internalType": "enum SmartContractVerificator.VerificationState",
          "name": "_state",
          "type": "uint8"
        }
      ],
      "name": "Verification",
      "type": "event"
    },
    {
      "inputs": [],
      "name": "MAXIMUM_TESTERS",
      "outputs": [
        {
          "internalType": "uint8",
          "name": "",
          "type": "uint8"
        }
      ],
      "stateMutability": "view",
      "type": "function"
    },
    {
      "inputs": [],
      "name": "MINIMUM_RATINGS",
      "outputs": [
        {
          "internalType": "uint8",
          "name": "",
          "type": "uint8"
        }
      ],
      "stateMutability": "view",
      "type": "function"
    },
    {
      "inputs": [
        {
          "internalType": "address",
          "name": "_programmer",
          "type": "address"
        },
        {
          "internalType": "uint8",
          "name": "_positivePoints",
          "type": "uint8"
        }
      ],
      "name": "addProgrammerPoints",
      "outputs": [],
      "stateMutability": "nonpayable",
      "type": "function"
    },
    {
      "inputs": [
        {
          "internalType": "address",
          "name": "_smartContractVerificator",
          "type": "address"
        }
      ],
      "name": "addSmartContractVerificator",
      "outputs": [],
      "stateMutability": "nonpayable",
      "type": "function"
    },
    {
      "inputs": [
        {
          "internalType": "address",
          "name": "_programmer",
          "type": "address"
        }
      ],
      "name": "addVerifiedProgrammer",
      "outputs": [],
      "stateMutability": "nonpayable",
      "type": "function"
    },
    {
      "inputs": [
        {
          "internalType": "address",
          "name": "_smartContractVerificator",
          "type": "address"
        }
      ],
      "name": "deleteSmartContractVerificator",
      "outputs": [],
      "stateMutability": "nonpayable",
      "type": "function"
    },
    {
      "inputs": [
        {
          "internalType": "address",
          "name": "_addr",
          "type": "address"
        }
      ],
      "name": "getVerifiedProgrammerPoints",
      "outputs": [
        {
          "internalType": "uint256",
          "name": "",
          "type": "uint256"
        }
      ],
      "stateMutability": "view",
      "type": "function"
    },
    {
      "inputs": [
        {
          "internalType": "address",
          "name": "_addr",
          "type": "address"
        }
      ],
      "name": "isProgrammerAllowedToTest",
      "outputs": [
        {
          "internalType": "bool",
          "name": "",
          "type": "bool"
        }
      ],
      "stateMutability": "view",
      "type": "function"
    },
    {
      "inputs": [
        {
          "internalType": "address",
          "name": "_addr",
          "type": "address"
        }
      ],
      "name": "isProgrammerVerified",
      "outputs": [
        {
          "internalType": "bool",
          "name": "",
          "type": "bool"
        }
      ],
      "stateMutability": "view",
      "type": "function"
    },
    {
      "inputs": [
        {
          "internalType": "address",
          "name": "_programmer",
          "type": "address"
        },
        {
          "internalType": "uint8",
          "name": "_negativePoints",
          "type": "uint8"
        }
      ],
      "name": "removeProgrammerPoints",
      "outputs": [],
      "stateMutability": "nonpayable",
      "type": "function"
    },
    {
      "inputs": [
        {
          "internalType": "uint256",
          "name": "",
          "type": "uint256"
        }
      ],
      "name": "reviewer",
      "outputs": [
        {
          "internalType": "address",
          "name": "",
          "type": "address"
        }
      ],
      "stateMutability": "view",
      "type": "function"
    },
    {
      "inputs": [],
      "name": "smartContractOwner",
      "outputs": [
        {
          "internalType": "address",
          "name": "",
          "type": "address"
        }
      ],
      "stateMutability": "view",
      "type": "function"
    },
    {
      "inputs": [],
      "name": "smartContractToVerify",
      "outputs": [
        {
          "internalType": "address",
          "name": "",
          "type": "address"
        }
      ],
      "stateMutability": "view",
      "type": "function"
    },
    {
      "inputs": [
        {
          "internalType": "uint256",
          "name": "",
          "type": "uint256"
        }
      ],
      "name": "swarmLevelTwoTests",
      "outputs": [
        {
          "internalType": "address",
          "name": "",
          "type": "address"
        }
      ],
      "stateMutability": "view",
      "type": "function"
    },
    {
      "inputs": [
        {
          "internalType": "uint256",
          "name": "",
          "type": "uint256"
        }
      ],
      "name": "tests",
      "outputs": [
        {
          "internalType": "address",
          "name": "",
          "type": "address"
        }
      ],
      "stateMutability": "view",
      "type": "function"
    },
    {
      "inputs": [],
      "name": "wallet",
      "outputs": [
        {
          "internalType": "address payable",
          "name": "",
          "type": "address"
        }
      ],
      "stateMutability": "view",
      "type": "function"
    },
    {
      "inputs": [],
      "name": "increaseRewardStake",
      "outputs": [],
      "stateMutability": "payable",
      "type": "function"
    },
    {
      "inputs": [],
      "name": "getSmartContractToVerify",
      "outputs": [
        {
          "internalType": "address",
          "name": "",
          "type": "address"
        }
      ],
      "stateMutability": "view",
      "type": "function"
    },
    {
      "inputs": [],
      "name": "isSmartContractVerified",
      "outputs": [
        {
          "internalType": "bool",
          "name": "",
          "type": "bool"
        }
      ],
      "stateMutability": "view",
      "type": "function"
    },
    {
      "inputs": [],
      "name": "getVerificationState",
      "outputs": [
        {
          "internalType": "enum SmartContractVerificator.VerificationState",
          "name": "",
          "type": "uint8"
        }
      ],
      "stateMutability": "view",
      "type": "function"
    },
    {
      "inputs": [],
      "name": "isTesterSpace",
      "outputs": [
        {
          "internalType": "bool",
          "name": "",
          "type": "bool"
        }
      ],
      "stateMutability": "view",
      "type": "function"
    },
    {
      "inputs": [
        {
          "internalType": "address",
          "name": "_smartContractTest",
          "type": "address"
        },
        {
          "internalType": "bool",
          "name": "_isAccepted",
          "type": "bool"
        }
      ],
      "name": "sendSmartContractTest",
      "outputs": [],
      "stateMutability": "nonpayable",
      "type": "function"
    },
    {
      "inputs": [
        {
          "internalType": "address",
          "name": "_smartContractTestToEvaluate",
          "type": "address"
        },
        {
          "internalType": "uint8",
          "name": "_rating",
          "type": "uint8"
        }
      ],
      "name": "evaluateTestOfSmartContract",
      "outputs": [],
      "stateMutability": "nonpayable",
      "type": "function"
    },
    {
      "inputs": [],
      "name": "getTests",
      "outputs": [
        {
          "internalType": "address[]",
          "name": "",
          "type": "address[]"
        }
      ],
      "stateMutability": "view",
      "type": "function"
    },
    {
      "inputs": [
        {
          "internalType": "uint256",
          "name": "_weiAmount",
          "type": "uint256"
        }
      ],
      "name": "sendBestWeiOffer",
      "outputs": [],
      "stateMutability": "nonpayable",
      "type": "function"
    },
    {
      "inputs": [],
      "name": "getBestWeiOffers",
      "outputs": [
        {
          "internalType": "uint256[]",
          "name": "",
          "type": "uint256[]"
        }
      ],
      "stateMutability": "view",
      "type": "function"
    },
    {
      "inputs": [],
      "name": "getRewardWalletAddress",
      "outputs": [
        {
          "internalType": "address",
          "name": "",
          "type": "address"
        }
      ],
      "stateMutability": "view",
      "type": "function"
    }
  ],
  "bytecode": "0x608060405260006008556000600f556040516200373738038062003737833981810160405260208110156200003357600080fd5b8101908080519060200190929190505050336000806101000a81548173ffffffffffffffffffffffffffffffffffffffff021916908373ffffffffffffffffffffffffffffffffffffffff1602179055506200009e8162000247640100000000026401000000009004565b620000f5576040517f08c379a0000000000000000000000000000000000000000000000000000000008152600401808060200182810382526056815260200180620036e16056913960600191505060405180910390fd5b601860009054906101000a900473ffffffffffffffffffffffffffffffffffffffff1673ffffffffffffffffffffffffffffffffffffffff166108fc349081150290604051600060405180830381858888f193505050501580156200015e573d6000803e3d6000fd5b5033601460006101000a81548173ffffffffffffffffffffffffffffffffffffffff021916908373ffffffffffffffffffffffffffffffffffffffff16021790555080601560006101000a81548173ffffffffffffffffffffffffffffffffffffffff021916908373ffffffffffffffffffffffffffffffffffffffff1602179055506000600460006101000a81548160ff021916908360028111156200020157fe5b0217905550600060028111156200021457fe5b7fbf6d951c7ed074eed5857505dd4d81c273ec8bdf6cfe460d4da3dc7bc7a0422760405160405180910390a2506200025a565b600080823b905060008111915050919050565b613477806200026a6000396000f3fe6080604052600436106101b9576000357c01000000000000000000000000000000000000000000000000000000009004806383d2ed5211610109578063c2a0f88f116100a7578063de22c8d411610081578063de22c8d414610921578063e1cc38261461099c578063e1f6a93a146109cd578063f97abf0014610a48576101b9565b8063c2a0f88f14610844578063cfeaf4be1461087d578063d8d32759146108e6576101b9565b8063a9b1c662116100e3578063a9b1c662146106a8578063b34891b514610706578063b4b65ae01461075d578063bf92e6fe146107c9576101b9565b806383d2ed521461059757806391036c37146105e857806396ffa49914610651576101b9565b806348550e6e11610176578063548b6a5111610150578063548b6a51146104815780636c5b9b12146104b057806372ea6efe146104e157806375529ea014610546576101b9565b806348550e6e146103a457806350ecf737146103d3578063521eb2731461042a576101b9565b80630798b1fb146101be5780630b30735a1461021c57806329d553601461027a578063319d6541146102e65780633c0954811461034357806346bbf8a01461034d575b600080fd5b3480156101ca57600080fd5b5061021a600480360360408110156101e157600080fd5b81019080803573ffffffffffffffffffffffffffffffffffffffff169060200190929190803560ff169060200190929190505050610a99565b005b34801561022857600080fd5b506102786004803603604081101561023f57600080fd5b81019080803573ffffffffffffffffffffffffffffffffffffffff169060200190929190803560ff169060200190929190505050611200565b005b34801561028657600080fd5b5061028f6113e6565b6040518080602001828103825283818151815260200191508051906020019060200280838360005b838110156102d25780820151818401526020810190506102b7565b505050509050019250505060405180910390f35b3480156102f257600080fd5b506103416004803603604081101561030957600080fd5b81019080803573ffffffffffffffffffffffffffffffffffffffff169060200190929190803515159060200190929190505050611498565b005b61034b611ae9565b005b34801561035957600080fd5b50610362611b54565b604051808273ffffffffffffffffffffffffffffffffffffffff1673ffffffffffffffffffffffffffffffffffffffff16815260200191505060405180910390f35b3480156103b057600080fd5b506103b9611b7a565b604051808215151515815260200191505060405180910390f35b3480156103df57600080fd5b506103e8611b8a565b604051808273ffffffffffffffffffffffffffffffffffffffff1673ffffffffffffffffffffffffffffffffffffffff16815260200191505060405180910390f35b34801561043657600080fd5b5061043f611bb4565b604051808273ffffffffffffffffffffffffffffffffffffffff1673ffffffffffffffffffffffffffffffffffffffff16815260200191505060405180910390f35b34801561048d57600080fd5b50610496611bda565b604051808215151515815260200191505060405180910390f35b3480156104bc57600080fd5b506104c5611c09565b604051808260ff1660ff16815260200191505060405180910390f35b3480156104ed57600080fd5b506105306004803603602081101561050457600080fd5b81019080803573ffffffffffffffffffffffffffffffffffffffff169060200190929190505050611c0e565b6040518082815260200191505060405180910390f35b34801561055257600080fd5b506105956004803603602081101561056957600080fd5b81019080803573ffffffffffffffffffffffffffffffffffffffff169060200190929190505050611c57565b005b3480156105a357600080fd5b506105e6600480360360208110156105ba57600080fd5b81019080803573ffffffffffffffffffffffffffffffffffffffff169060200190929190505050611dae565b005b3480156105f457600080fd5b506106376004803603602081101561060b57600080fd5b81019080803573ffffffffffffffffffffffffffffffffffffffff169060200190929190505050611f05565b604051808215151515815260200191505060405180910390f35b34801561065d57600080fd5b50610666611f5b565b604051808273ffffffffffffffffffffffffffffffffffffffff1673ffffffffffffffffffffffffffffffffffffffff16815260200191505060405180910390f35b3480156106b457600080fd5b50610704600480360360408110156106cb57600080fd5b81019080803573ffffffffffffffffffffffffffffffffffffffff169060200190929190803560ff169060200190929190505050611f81565b005b34801561071257600080fd5b5061071b612202565b604051808273ffffffffffffffffffffffffffffffffffffffff1673ffffffffffffffffffffffffffffffffffffffff16815260200191505060405180910390f35b34801561076957600080fd5b5061077261222c565b6040518080602001828103825283818151815260200191508051906020019060200280838360005b838110156107b557808201518184015260208101905061079a565b505050509050019250505060405180910390f35b3480156107d557600080fd5b50610802600480360360208110156107ec57600080fd5b8101908080359060200190929190505050612318565b604051808273ffffffffffffffffffffffffffffffffffffffff1673ffffffffffffffffffffffffffffffffffffffff16815260200191505060405180910390f35b34801561085057600080fd5b50610859612354565b6040518082600281111561086957fe5b60ff16815260200191505060405180910390f35b34801561088957600080fd5b506108cc600480360360208110156108a057600080fd5b81019080803573ffffffffffffffffffffffffffffffffffffffff16906020019092919050505061236b565b604051808215151515815260200191505060405180910390f35b3480156108f257600080fd5b5061091f6004803603602081101561090957600080fd5b81019080803590602001909291905050506123c7565b005b34801561092d57600080fd5b5061095a6004803603602081101561094457600080fd5b8101908080359060200190929190505050612552565b604051808273ffffffffffffffffffffffffffffffffffffffff1673ffffffffffffffffffffffffffffffffffffffff16815260200191505060405180910390f35b3480156109a857600080fd5b506109b161258e565b604051808260ff1660ff16815260200191505060405180910390f35b3480156109d957600080fd5b50610a06600480360360208110156109f057600080fd5b8101908080359060200190929190505050612593565b604051808273ffffffffffffffffffffffffffffffffffffffff1673ffffffffffffffffffffffffffffffffffffffff16815260200191505060405180910390f35b348015610a5457600080fd5b50610a9760048036036020811015610a6b57600080fd5b81019080803573ffffffffffffffffffffffffffffffffffffffff1690602001909291905050506125c6565b005b610aa23361236b565b610af7576040517f08c379a000000000000000000000000000000000000000000000000000000000815260040180806020018281038252603c815260200180613139603c913960400191505060405180910390fd5b601460009054906101000a900473ffffffffffffffffffffffffffffffffffffffff1673ffffffffffffffffffffffffffffffffffffffff163373ffffffffffffffffffffffffffffffffffffffff161415610b9e576040517f08c379a00000000000000000000000000000000000000000000000000000000081526004018080602001828103825260488152602001806133fa6048913960600191505060405180910390fd5b600d60008373ffffffffffffffffffffffffffffffffffffffff1673ffffffffffffffffffffffffffffffffffffffff16815260200190815260200160002060009054906101000a900460ff16610c40576040517f08c379a00000000000000000000000000000000000000000000000000000000081526004018080602001828103825260408152602001806131756040913960400191505060405180910390fd5b600660003373ffffffffffffffffffffffffffffffffffffffff1673ffffffffffffffffffffffffffffffffffffffff16815260200190815260200160002060009054906101000a900460ff1615610ce3576040517f08c379a000000000000000000000000000000000000000000000000000000000815260040180806020018281038252602c815260200180613299602c913960400191505060405180910390fd5b601160008373ffffffffffffffffffffffffffffffffffffffff1673ffffffffffffffffffffffffffffffffffffffff16815260200190815260200160002060003373ffffffffffffffffffffffffffffffffffffffff1673ffffffffffffffffffffffffffffffffffffffff16815260200190815260200160002060009054906101000a900460ff1615610de0576040517f08c379a000000000000000000000000000000000000000000000000000000000815260040180806020018281038252601c8152602001807f596f7520616c7265616479207261746564207468697320746573742e0000000081525060200191505060405180910390fd5b8060ff16600011158015610df8575060028160ff1611155b610e4d576040517f08c379a00000000000000000000000000000000000000000000000000000000081526004018080602001828103825260338152602001806133c76033913960400191505060405180910390fd5b6001601160008473ffffffffffffffffffffffffffffffffffffffff1673ffffffffffffffffffffffffffffffffffffffff16815260200190815260200160002060003373ffffffffffffffffffffffffffffffffffffffff1673ffffffffffffffffffffffffffffffffffffffff16815260200190815260200160002060006101000a81548160ff02191690831515021790555080601060008473ffffffffffffffffffffffffffffffffffffffff1673ffffffffffffffffffffffffffffffffffffffff16815260200190815260200160002060003373ffffffffffffffffffffffffffffffffffffffff1673ffffffffffffffffffffffffffffffffffffffff16815260200190815260200160002060006101000a81548160ff021916908360ff1602179055506012339080600181540180825580915050600190039060005260206000200160009091909190916101000a81548173ffffffffffffffffffffffffffffffffffffffff021916908373ffffffffffffffffffffffffffffffffffffffff160217905550601360008373ffffffffffffffffffffffffffffffffffffffff1673ffffffffffffffffffffffffffffffffffffffff16815260200190815260200160002060000160009054906101000a900460ff166110d657604051806080016040528060011515815260200160008152602001600081526020016000815250601360008473ffffffffffffffffffffffffffffffffffffffff1673ffffffffffffffffffffffffffffffffffffffff16815260200190815260200160002060008201518160000160006101000a81548160ff0219169083151502179055506020820151816001015560408201518160020155606082015181600301559050505b60008160ff16141561113557601360008373ffffffffffffffffffffffffffffffffffffffff1673ffffffffffffffffffffffffffffffffffffffff168152602001908152602001600020600101600081548092919060010191905055505b60018160ff16141561119457601360008373ffffffffffffffffffffffffffffffffffffffff1673ffffffffffffffffffffffffffffffffffffffff168152602001908152602001600020600201600081548092919060010191905055505b60028160ff1614156111f357601360008373ffffffffffffffffffffffffffffffffffffffff1673ffffffffffffffffffffffffffffffffffffffff168152602001908152602001600020600301600081548092919060010191905055505b6111fc82612758565b5050565b600160003373ffffffffffffffffffffffffffffffffffffffff1673ffffffffffffffffffffffffffffffffffffffff16815260200190815260200160002060009054906101000a900460ff166112a2576040517f08c379a000000000000000000000000000000000000000000000000000000000815260040180806020018281038252602e8152602001806130ce602e913960400191505060405180910390fd5b6000600260008473ffffffffffffffffffffffffffffffffffffffff1673ffffffffffffffffffffffffffffffffffffffff168152602001908152602001600020541161133a576040517f08c379a000000000000000000000000000000000000000000000000000000000815260040180806020018281038252603d8152602001806130fc603d913960400191505060405180910390fd5b8060ff16600260008473ffffffffffffffffffffffffffffffffffffffff1673ffffffffffffffffffffffffffffffffffffffff168152602001908152602001600020600082825401925050819055506001600360008473ffffffffffffffffffffffffffffffffffffffff1673ffffffffffffffffffffffffffffffffffffffff16815260200190815260200160002060006101000a81548160ff0219169083151502179055505050565b6060601460009054906101000a900473ffffffffffffffffffffffffffffffffffffffff1673ffffffffffffffffffffffffffffffffffffffff163373ffffffffffffffffffffffffffffffffffffffff161461144257600080fd5b601680548060200260200160405190810160405280929190818152602001828054801561148e57602002820191906000526020600020905b81548152602001906001019080831161147a575b5050505050905090565b6114a13361236b565b6114f6576040517f08c379a000000000000000000000000000000000000000000000000000000000815260040180806020018281038252603c815260200180613139603c913960400191505060405180910390fd5b601460009054906101000a900473ffffffffffffffffffffffffffffffffffffffff1673ffffffffffffffffffffffffffffffffffffffff163373ffffffffffffffffffffffffffffffffffffffff16141561159d576040517f08c379a00000000000000000000000000000000000000000000000000000000081526004018080602001828103825260448152602001806131b56044913960600191505060405180910390fd5b600060028111156115aa57fe5b600460009054906101000a900460ff1660028111156115c557fe5b1461161b576040517f08c379a00000000000000000000000000000000000000000000000000000000081526004018080602001828103825260308152602001806132696030913960400191505060405180910390fd5b61162482612cf3565b611679576040517f08c379a00000000000000000000000000000000000000000000000000000000081526004018080602001828103825260568152602001806133436056913960600191505060405180910390fd5b61168233611f05565b6116d7576040517f08c379a00000000000000000000000000000000000000000000000000000000081526004018080602001828103825260578152602001806130776057913960600191505060405180910390fd5b600660003373ffffffffffffffffffffffffffffffffffffffff1673ffffffffffffffffffffffffffffffffffffffff16815260200190815260200160002060009054906101000a900460ff161561177a576040517f08c379a00000000000000000000000000000000000000000000000000000000081526004018080602001828103825260308152602001806133136030913960400191505060405180910390fd5b600560ff16600854106117d8576040517f08c379a00000000000000000000000000000000000000000000000000000000081526004018080602001828103825260248152602001806132ef6024913960400191505060405180910390fd5b60003390506005819080600181540180825580915050600190039060005260206000200160009091909190916101000a81548173ffffffffffffffffffffffffffffffffffffffff021916908373ffffffffffffffffffffffffffffffffffffffff1602179055506001600660008373ffffffffffffffffffffffffffffffffffffffff1673ffffffffffffffffffffffffffffffffffffffff16815260200190815260200160002060006101000a81548160ff02191690831515021790555081600960008373ffffffffffffffffffffffffffffffffffffffff1673ffffffffffffffffffffffffffffffffffffffff16815260200190815260200160002060006101000a81548160ff02191690831515021790555082600a60008373ffffffffffffffffffffffffffffffffffffffff1673ffffffffffffffffffffffffffffffffffffffff16815260200190815260200160002060006101000a81548173ffffffffffffffffffffffffffffffffffffffff021916908373ffffffffffffffffffffffffffffffffffffffff16021790555080600b60008573ffffffffffffffffffffffffffffffffffffffff1673ffffffffffffffffffffffffffffffffffffffff16815260200190815260200160002060006101000a81548173ffffffffffffffffffffffffffffffffffffffff021916908373ffffffffffffffffffffffffffffffffffffffff160217905550600c839080600181540180825580915050600190039060005260206000200160009091909190916101000a81548173ffffffffffffffffffffffffffffffffffffffff021916908373ffffffffffffffffffffffffffffffffffffffff1602179055506001600d60008573ffffffffffffffffffffffffffffffffffffffff1673ffffffffffffffffffffffffffffffffffffffff16815260200190815260200160002060006101000a81548160ff0219169083151502179055507f256f0217b27a6fdf83de7739e7ad56bfe0da2c22c960e11d1113430fce43a8b360405160405180910390a1600860008154809291906001019190505550505050565b601860009054906101000a900473ffffffffffffffffffffffffffffffffffffffff1673ffffffffffffffffffffffffffffffffffffffff166108fc349081150290604051600060405180830381858888f19350505050158015611b51573d6000803e3d6000fd5b50565b601560009054906101000a900473ffffffffffffffffffffffffffffffffffffffff1681565b6000600560ff1660085410905090565b6000601860009054906101000a900473ffffffffffffffffffffffffffffffffffffffff16905090565b601860009054906101000a900473ffffffffffffffffffffffffffffffffffffffff1681565b6000600460009054906101000a900460ff166002811115611bf757fe5b600280811115611c0357fe5b14905090565b606481565b6000600260008373ffffffffffffffffffffffffffffffffffffffff1673ffffffffffffffffffffffffffffffffffffffff168152602001908152602001600020549050919050565b601460009054906101000a900473ffffffffffffffffffffffffffffffffffffffff1673ffffffffffffffffffffffffffffffffffffffff163373ffffffffffffffffffffffffffffffffffffffff1614611cb157600080fd5b600160008273ffffffffffffffffffffffffffffffffffffffff1673ffffffffffffffffffffffffffffffffffffffff16815260200190815260200160002060009054906101000a900460ff16611d53576040517f08c379a000000000000000000000000000000000000000000000000000000000815260040180806020018281038252602a81526020018061323f602a913960400191505060405180910390fd5b6000600160008373ffffffffffffffffffffffffffffffffffffffff1673ffffffffffffffffffffffffffffffffffffffff16815260200190815260200160002060006101000a81548160ff02191690831515021790555050565b601460009054906101000a900473ffffffffffffffffffffffffffffffffffffffff1673ffffffffffffffffffffffffffffffffffffffff163373ffffffffffffffffffffffffffffffffffffffff1614611e0857600080fd5b600160008273ffffffffffffffffffffffffffffffffffffffff1673ffffffffffffffffffffffffffffffffffffffff16815260200190815260200160002060009054906101000a900460ff1615611eab576040517f08c379a000000000000000000000000000000000000000000000000000000000815260040180806020018281038252602a8152602001806132c5602a913960400191505060405180910390fd5b60018060008373ffffffffffffffffffffffffffffffffffffffff1673ffffffffffffffffffffffffffffffffffffffff16815260200190815260200160002060006101000a81548160ff02191690831515021790555050565b6000600360008373ffffffffffffffffffffffffffffffffffffffff1673ffffffffffffffffffffffffffffffffffffffff16815260200190815260200160002060009054906101000a900460ff169050919050565b601460009054906101000a900473ffffffffffffffffffffffffffffffffffffffff1681565b600160003373ffffffffffffffffffffffffffffffffffffffff1673ffffffffffffffffffffffffffffffffffffffff16815260200190815260200160002060009054906101000a900460ff16612023576040517f08c379a000000000000000000000000000000000000000000000000000000000815260040180806020018281038252602e8152602001806130ce602e913960400191505060405180910390fd5b6000600260008473ffffffffffffffffffffffffffffffffffffffff1673ffffffffffffffffffffffffffffffffffffffff16815260200190815260200160002054116120bb576040517f08c379a000000000000000000000000000000000000000000000000000000000815260040180806020018281038252603d8152602001806130fc603d913960400191505060405180910390fd5b6000600260008473ffffffffffffffffffffffffffffffffffffffff1673ffffffffffffffffffffffffffffffffffffffff168152602001908152602001600020549050808260ff161115612154576000600260008573ffffffffffffffffffffffffffffffffffffffff1673ffffffffffffffffffffffffffffffffffffffff168152602001908152602001600020819055506121a5565b8160ff16600260008573ffffffffffffffffffffffffffffffffffffffff1673ffffffffffffffffffffffffffffffffffffffff168152602001908152602001600020600082825403925050819055505b6000600360008573ffffffffffffffffffffffffffffffffffffffff1673ffffffffffffffffffffffffffffffffffffffff16815260200190815260200160002060006101000a81548160ff021916908315150217905550505050565b6000601560009054906101000a900473ffffffffffffffffffffffffffffffffffffffff16905090565b60606122373361236b565b61228c576040517f08c379a000000000000000000000000000000000000000000000000000000000815260040180806020018281038252603c815260200180613139603c913960400191505060405180910390fd5b600c80548060200260200160405190810160405280929190818152602001828054801561230e57602002820191906000526020600020905b8160009054906101000a900473ffffffffffffffffffffffffffffffffffffffff1673ffffffffffffffffffffffffffffffffffffffff16815260200190600101908083116122c4575b5050505050905090565b6012818154811061232557fe5b906000526020600020016000915054906101000a900473ffffffffffffffffffffffffffffffffffffffff1681565b6000600460009054906101000a900460ff16905090565b600080600260008473ffffffffffffffffffffffffffffffffffffffff1673ffffffffffffffffffffffffffffffffffffffff1681526020019081526020016000205411156123bd57600190506123c2565b600090505b919050565b6123d03361236b565b612425576040517f08c379a000000000000000000000000000000000000000000000000000000000815260040180806020018281038252603c815260200180613139603c913960400191505060405180910390fd5b60001515601760003373ffffffffffffffffffffffffffffffffffffffff1673ffffffffffffffffffffffffffffffffffffffff16815260200190815260200160002060009054906101000a900460ff161515146124ce576040517f08c379a000000000000000000000000000000000000000000000000000000000815260040180806020018281038252602e815260200180613399602e913960400191505060405180910390fd5b6001601760003373ffffffffffffffffffffffffffffffffffffffff1673ffffffffffffffffffffffffffffffffffffffff16815260200190815260200160002060006101000a81548160ff021916908315150217905550601681908060018154018082558091505060019003906000526020600020016000909190919091505550565b600c818154811061255f57fe5b906000526020600020016000915054906101000a900473ffffffffffffffffffffffffffffffffffffffff1681565b600581565b600e6020528060005260406000206000915054906101000a900473ffffffffffffffffffffffffffffffffffffffff1681565b601460009054906101000a900473ffffffffffffffffffffffffffffffffffffffff1673ffffffffffffffffffffffffffffffffffffffff163373ffffffffffffffffffffffffffffffffffffffff161461262057600080fd5b6000600260008373ffffffffffffffffffffffffffffffffffffffff1673ffffffffffffffffffffffffffffffffffffffff16815260200190815260200160002054146126b8576040517f08c379a00000000000000000000000000000000000000000000000000000000081526004018080602001828103825260468152602001806131f96046913960600191505060405180910390fd5b600a600260008373ffffffffffffffffffffffffffffffffffffffff1673ffffffffffffffffffffffffffffffffffffffff168152602001908152602001600020819055506001600360008373ffffffffffffffffffffffffffffffffffffffff1673ffffffffffffffffffffffffffffffffffffffff16815260200190815260200160002060006101000a81548160ff02191690831515021790555050565b6000600281111561276557fe5b600460009054906101000a900460ff16600281111561278057fe5b146127d6576040517f08c379a00000000000000000000000000000000000000000000000000000000081526004018080602001828103825260308152602001806132696030913960400191505060405180910390fd5b6000601360008373ffffffffffffffffffffffffffffffffffffffff1673ffffffffffffffffffffffffffffffffffffffff1681526020019081526020016000206001015490506000601360008473ffffffffffffffffffffffffffffffffffffffff1673ffffffffffffffffffffffffffffffffffffffff1681526020019081526020016000206002015490506000601360008573ffffffffffffffffffffffffffffffffffffffff1673ffffffffffffffffffffffffffffffffffffffff168152602001908152602001600020600301549050600081838501019050606460ff168110156128c95750505050612cf0565b600083851180156128d957508285115b156128e7576000905061292b565b84841180156128f557508284115b15612903576001905061292a565b848311801561291157508383115b1561291f5760029050612929565b5050505050612cf0565b5b5b60008090505b601280549050811015612a5c578160ff16601060008973ffffffffffffffffffffffffffffffffffffffff1673ffffffffffffffffffffffffffffffffffffffff16815260200190815260200160002060006012848154811061299057fe5b9060005260206000200160009054906101000a900473ffffffffffffffffffffffffffffffffffffffff1673ffffffffffffffffffffffffffffffffffffffff1673ffffffffffffffffffffffffffffffffffffffff16815260200190815260200160002060009054906101000a900460ff1660ff161415612a4f57612a4e60128281548110612a1c57fe5b9060005260206000200160009054906101000a900473ffffffffffffffffffffffffffffffffffffffff166001611200565b5b8080600101915050612931565b5060008160ff161480612a72575060018160ff16145b15612c655760008160ff161415612aee57612aed600b60008873ffffffffffffffffffffffffffffffffffffffff1673ffffffffffffffffffffffffffffffffffffffff16815260200190815260200160002060009054906101000a900473ffffffffffffffffffffffffffffffffffffffff166002611f81565b5b60018160ff161415612b6557612b64600b60008873ffffffffffffffffffffffffffffffffffffffff1673ffffffffffffffffffffffffffffffffffffffff16815260200190815260200160002060009054906101000a900473ffffffffffffffffffffffffffffffffffffffff166001611f81565b5b600160076000600b60008a73ffffffffffffffffffffffffffffffffffffffff1673ffffffffffffffffffffffffffffffffffffffff16815260200190815260200160002060009054906101000a900473ffffffffffffffffffffffffffffffffffffffff1673ffffffffffffffffffffffffffffffffffffffff1673ffffffffffffffffffffffffffffffffffffffff16815260200190815260200160002060006101000a81548160ff0219169083151502179055507f0d2bca1355d4c59dd0e3fba2bcfc8bdecbb4acf77639756281442ab5aa48a7a560405160405180910390a1600860008154809291906001900391905055505050505050612cf0565b85600e6000600f54815260200190815260200160002060006101000a81548173ffffffffffffffffffffffffffffffffffffffff021916908373ffffffffffffffffffffffffffffffffffffffff160217905550600f60008154809291906001019190505550600560ff16600f541415612cea57612ce1612d06565b612ce9612e76565b5b50505050505b50565b600080823b905060008111915050919050565b60008090505b600580549050811015612e73576007600060058381548110612d2a57fe5b9060005260206000200160009054906101000a900473ffffffffffffffffffffffffffffffffffffffff1673ffffffffffffffffffffffffffffffffffffffff1673ffffffffffffffffffffffffffffffffffffffff16815260200190815260200160002060009054906101000a900460ff16612e665760058181548110612dae57fe5b9060005260206000200160009054906101000a900473ffffffffffffffffffffffffffffffffffffffff1673ffffffffffffffffffffffffffffffffffffffff166108fc600560ff16601860009054906101000a900473ffffffffffffffffffffffffffffffffffffffff1673ffffffffffffffffffffffffffffffffffffffff163181612e3857fe5b049081150290604051600060405180830381858888f19350505050158015612e64573d6000803e3d6000fd5b505b8080600101915050612d0c565b50565b60008090505b600580549050811015613016576007600060058381548110612e9a57fe5b9060005260206000200160009054906101000a900473ffffffffffffffffffffffffffffffffffffffff1673ffffffffffffffffffffffffffffffffffffffff1673ffffffffffffffffffffffffffffffffffffffff16815260200190815260200160002060009054906101000a900460ff16158015612fa15750600015156009600060058481548110612f2a57fe5b9060005260206000200160009054906101000a900473ffffffffffffffffffffffffffffffffffffffff1673ffffffffffffffffffffffffffffffffffffffff1673ffffffffffffffffffffffffffffffffffffffff16815260200190815260200160002060009054906101000a900460ff161515145b15613009576001600460006101000a81548160ff02191690836002811115612fc557fe5b021790555060016002811115612fd757fe5b7fbf6d951c7ed074eed5857505dd4d81c273ec8bdf6cfe460d4da3dc7bc7a0422760405160405180910390a250613074565b8080600101915050612e7c565b506002600460006101000a81548160ff0219169083600281111561303657fe5b021790555060028081111561304757fe5b7fbf6d951c7ed074eed5857505dd4d81c273ec8bdf6cfe460d4da3dc7bc7a0422760405160405180910390a25b56fe596f75722061646472657373206973206e6f7420616c6c6f77656420746f20746573742c206265636175736520796f7572206c617374206576616c756174696f6e20776173206e6f7420696e2074686520737761726d2e4f6e6c792063616c6c61626c65206279206120736d61727420636f6e7472616374207665726966696361746f722e5370656369666965642061646472657373206973206e6f7420696e20746865206c697374206f662076657269666965642070726f6772616d6d6572732e596f75722061646472657373206973206e6f7420696e207468652076657269666965642070726f6772616d6d65722061646472657373206c6973742e5370656369666965642061646472657373206f66207465737420666f722074686520736d61727420636f6e747261637420646f6573206e6f742065786973742e4173206f776e657220796f7520617265206e6f7420616c6c6f77656420746f2073656e642061207465737420666f7220796f757220736d61727420636f6e74726163742e50726f6772616d6d6572206164647265737320697320616c726561647920696e207468652076657269666965642070726f6772616d6d65722061646472657373206c6973742e536d61727420636f6e7472616374207665726966696361746f7220646f6573206e6f742065786973742e54686520736d61727420636f6e747261637420697320656974686572206c6f636b6564206f722076657269666965642e596f752063616e206e6f7420726174652061207465737420696620796f75206172652061207465737465722e536d61727420636f6e7472616374207665726966696361746f7220616c7265616479206578697374732e4d6178696d756d206c696d6974206f66207465737465727320697320726561636865642e596f7520616c72656164792073656e742061207465737420666f72207468697320736d61727420636f6e74726163742e5370656369666965642061646472657373206973206e6f74206120736d61727420636f6e74726163742120416464726573732073686f756c64206265206120736d61727420636f6e747261637420616464726573732e596f7520616c7265616479206f66666572656420612077656920616d6f756e7420746f20746865206f776e65722e53706563696669656420726174696e67206973206e6f742030206f722031206f7220322c206275742068617320746f2062652e4173206f776e657220796f7520617265206e6f7420616c6c6f77656420746f206576616c756174652061207465737420666f7220796f757220736d61727420636f6e74726163742ea2646970667358221220668280e60885d76a9bd6b772b65b61bcf89137b68db374c25f3aefcf9633929e64736f6c634300060200335370656369666965642061646472657373206973206e6f74206120736d61727420636f6e74726163742120416464726573732073686f756c64206265206120736d61727420636f6e747261637420616464726573732e",
  "source": "pragma solidity ^0.6.2;\n\nimport \"./SafeMath.sol\";\nimport \"./Verificator.sol\";\n\n// smart verified programmers check smart contract code for semantic weaknesses, errors and bugs and they will test it (write a test smart contract for that)\n// let the registered programmers with the 50% best ratings get the reward stored in the wallet\n// each registered programmer can call if the smart contract is accepted\n// owner can not change the smart contract, there will be tests only written for this version and semantic comments\n// the reward will be distributed always for the tests and comments and semantic reviews\ncontract SmartContractVerificator is Verificator {\n    // final verification states\n    // active at beginning for the verification process and locked if not verified by the testers\n    enum VerificationState { ACTIVE, LOCKED, VERIFIED }\n\n    // event triggers and subscribers to the event can see it\n    // stores the state of verification in the blockchain visible forever\n    // indexed means event is not stored in log instead in topic\n    event Verification (\n        VerificationState indexed _state\n    );\n    VerificationState state;\n\n    // TODO make sure that only the valid verificator of the enterprise is inherited\n    // address constant public PROGRAMMER_VERIFICATOR = 0x692a70D2e424a56D2C6C27aA97D1a86395877b3A;\n\n    // maximal five testers are possible\n    uint8 public constant MAXIMUM_TESTERS = 5;\n\n    // minimum amount of ratings to check if smart contract test has an average rating of 3\n    uint8 public constant MINIMUM_RATINGS = 100;\n\n    // only verified programmer ethereum address list which registered for the verification of the smart contract\n    // programmers verification is only valid if it is pushed with test code and another verified programmer evaluate the test code\n    address payable[] testers;\n    mapping(address => bool) testersMapping;\n\n    mapping(address => bool) testerBlacklist;\n\n    // if tester joins then ++ if tester leaves -- for testerNumber\n    uint testerNumber = 0;\n    event TesterJoins();\n    event TesterLeaves();\n\n    // first is verified programmer and second is if the smart contract is accepted\n    // 60% of the verified programmers should accept the code to get verified\n    mapping(address => bool) acceptanceMapping;\n\n    // first address is address of tester, second is address of smart contract test\n    mapping(address => address) testerSmartContractTestMapping;\n    // first is test and second is tester\n    mapping(address => address) testSmartContractTesterMapping;\n\n    address[] public tests;\n    mapping(address => bool) testsMapping;\n\n    // first is index second is same test address\n    mapping(uint => address) public swarmLevelTwoTests;\n    uint swarmLevelTwoTestIndex = 0;\n    // first is address of smart contract test\n    // second is reviewer and third is rating of reviewer\n    mapping(address => mapping(address => uint8)) testReviewerRatingMapping;\n    mapping(address => mapping(address => bool)) testReviewerHasRatedMapping;\n\n    address[] public reviewer;\n\n    // uints are the amount of added ratings\n    struct Rating {\n        bool exists;\n        uint zeroPoints;\n        uint onePoints;\n        uint twoPoints;\n    }\n\n    // first is address of smart contract, second is rating of smart contract\n    mapping(address => Rating) testRatingMapping;\n\n    address public smartContractOwner;\n    // owner is the creator of the to verified smart contract\n    address public smartContractToVerify;\n\n    // only one wei best offer for one verified programmer\n    // for the owner, that he knows what the price should be\n    uint256[] internal bestWeiOffers;\n    mapping(address => bool) alreadyOffered;\n\n    // wallet which holds the reward for the verificators\n    address payable public wallet;\n\n    modifier onlyOwner() override {\n        require(msg.sender == smartContractOwner);\n        _;\n    }\n\n    modifier onlyVerifiedProgrammer () {\n        // check if msg.sender is a verified programmer\n        require(Verificator.isProgrammerVerified(msg.sender), \"Your address is not in the verified programmer address list.\");\n        _;\n    }\n\n    modifier onlyTester () {\n        // check if msg.sender is a tester\n        // TODO: fix exists bug, the function exists does not exist :D, use mapping with bool instead\n        require(testersMapping[msg.sender], \"Your address is not in the tester address list.\");\n        _;\n    }\n\n    constructor(address _smartContract) public payable {\n        require(isContract(_smartContract), \"Specified address is not a smart contract! Address should be a smart contract address.\");\n        wallet.transfer(msg.value);\n        smartContractOwner = msg.sender;\n        smartContractToVerify = _smartContract;\n        state = VerificationState.ACTIVE;\n        emit Verification(VerificationState.ACTIVE);\n    }\n\n    function increaseRewardStake() public payable {\n        wallet.transfer(msg.value);\n    }\n\n    function getSmartContractToVerify() public view returns (address) {\n        return smartContractToVerify;\n    }\n\n    function isSmartContractVerified() public view returns (bool) {\n        return VerificationState.VERIFIED == state;\n\n    }\n\n    function getVerificationState() public view returns (VerificationState) {\n        return state;\n    }\n\n    // starts with one reviewer parameters\n    function checkSwarmIntelligence(address _smartContractTest) internal {\n        require((state == VerificationState.ACTIVE), \"The smart contract is either locked or verified.\");\n\n        uint zeros = testRatingMapping[_smartContractTest].zeroPoints;\n        uint ones = testRatingMapping[_smartContractTest].onePoints;\n        uint twos = testRatingMapping[_smartContractTest].twoPoints;\n\n        uint ratingAmount = zeros + ones + twos;\n        // first look if the smart contract test got 100 ratings\n        // minimum limit for whole rating amount\n        if (ratingAmount < MINIMUM_RATINGS) return;\n\n        // let the verified programmers with the swarm intelligence get a good ranking to get selected for the next test of smart contract\n        uint8 swarm;\n        if (zeros > ones && zeros > twos) {\n            swarm = 0;\n        } else if (ones > zeros && ones > twos) {\n            swarm = 1;\n        } else if (twos > zeros && twos > ones) {\n            swarm = 2;\n        } else {\n            // there is no majority, wait for the next reviewer\n            return;\n        }\n        // evaluate the programmer which got the rating as swarm intelligence\n        for (uint i = 0; i < reviewer.length; i++) {\n            if (testReviewerRatingMapping[_smartContractTest][reviewer[i]] == swarm) {\n                Verificator.addProgrammerPoints(reviewer[i], 1);\n            }\n        }\n        // tester is too bad\n        if (swarm == 0 || swarm == 1) {\n            // punish bad testers\n            if (swarm == 0) Verificator.removeProgrammerPoints(testSmartContractTesterMapping[_smartContractTest], 2);\n            if (swarm == 1) Verificator.removeProgrammerPoints(testSmartContractTesterMapping[_smartContractTest], 1);\n            // remove tester and let another verified programmer get a chance to do a better test\n            testerBlacklist[testSmartContractTesterMapping[_smartContractTest]] = true;\n            // event for other verified programmers could test\n            emit TesterLeaves();\n            testerNumber--;\n            return;\n        }\n        // swarm is 3 so the tester has written a good test\n        swarmLevelTwoTests[swarmLevelTwoTestIndex] = _smartContractTest;\n        swarmLevelTwoTestIndex++;\n        // if the last swarm level 2 contract is called this function (the maximum smart contract test with rating of 3) then checkSmartContractVerification\n        if (swarmLevelTwoTestIndex == MAXIMUM_TESTERS) {\n            rewardTesters();\n            checkSmartContractVerification();\n        }\n    }\n\n    function checkSmartContractVerification() internal {\n        // now every tester got a rating of 3 and tester list is max\n        // acceptanceMapping is for the whole smart contract verification\n        // use only the acceptance mapping of the five swarmLevelTwo testers!\n        for(uint i = 0; i < testers.length; i++) {\n            // every tester should accept the smart contract to let it be verified\n            if (!testerBlacklist[testers[i]] && acceptanceMapping[testers[i]] == false) {\n                // one tester did not accept the smart contract to be verified\n                state = VerificationState.LOCKED;\n                emit Verification(VerificationState.LOCKED);\n                return;\n            }\n        }\n        // if no tester denied the smart contract, then it is verified\n        state = VerificationState.VERIFIED;\n        emit Verification(VerificationState.VERIFIED);\n    }\n\n    function rewardTesters() internal {\n        // TODO: wei not divisible by 5 problem fix\n        for(uint i = 0; i < testers.length; i++) {\n            if (!testerBlacklist[testers[i]]) {\n                // TODO: not sure if wallet -> tester\n                testers[i].transfer(address(wallet).balance / MAXIMUM_TESTERS);\n            }\n        }\n    }\n\n    // verified programmers can look up if they could test the smart contract\n    function isTesterSpace() public view returns (bool) {\n        return testerNumber < MAXIMUM_TESTERS;\n    }\n\n    // the tester has written a test for the to verified smart contract\n    // after this the tester needs also to check another test of another tester, if not, he will not be rewarded\n    function sendSmartContractTest(address _smartContractTest, bool _isAccepted) public onlyVerifiedProgrammer {\n        require(msg.sender != smartContractOwner, \"As owner you are not allowed to send a test for your smart contract.\");\n        // check if the tests and ratings are sufficing the smart contract verification\n        require((state == VerificationState.ACTIVE), \"The smart contract is either locked or verified.\");\n        require(isContract(_smartContractTest), \"Specified address is not a smart contract! Address should be a smart contract address.\");\n        require(Verificator.isProgrammerAllowedToTest(msg.sender), \"Your address is not allowed to test, because your last evaluation was not in the swarm.\");\n        require(!testersMapping[msg.sender], \"You already sent a test for this smart contract.\");\n        require(testerNumber < MAXIMUM_TESTERS, \"Maximum limit of testers is reached.\");\n\n        address payable tester = msg.sender;\n\n        testers.push(tester);\n        testersMapping[tester] = true;\n        acceptanceMapping[tester] = _isAccepted;\n        testerSmartContractTestMapping[tester] = _smartContractTest;\n        testSmartContractTesterMapping[_smartContractTest] = tester;\n        tests.push(_smartContractTest);\n        testsMapping[_smartContractTest] = true;\n\n        emit TesterJoins();\n        testerNumber++;\n    }\n\n    function evaluateTestOfSmartContract(address _smartContractTestToEvaluate, uint8 _rating) public onlyVerifiedProgrammer {\n        require(msg.sender != smartContractOwner, \"As owner you are not allowed to evaluate a test for your smart contract.\");\n        require(testsMapping[_smartContractTestToEvaluate], \"Specified address of test for the smart contract does not exist.\");\n        require(!testersMapping[msg.sender], \"You can not rate a test if you are a tester.\");\n        require(!testReviewerHasRatedMapping[_smartContractTestToEvaluate][msg.sender], \"You already rated this test.\");\n        require(0 <= _rating && _rating <= 2, \"Specified rating is not 0 or 1 or 2, but has to be.\");\n\n        testReviewerHasRatedMapping[_smartContractTestToEvaluate][msg.sender] = true;\n        testReviewerRatingMapping[_smartContractTestToEvaluate][msg.sender] = _rating;\n        reviewer.push(msg.sender);\n        if (!testRatingMapping[_smartContractTestToEvaluate].exists) testRatingMapping[_smartContractTestToEvaluate] = Rating(true, 0, 0, 0);\n        if (_rating == 0) testRatingMapping[_smartContractTestToEvaluate].zeroPoints++;\n        if (_rating == 1) testRatingMapping[_smartContractTestToEvaluate].onePoints++;\n        if (_rating == 2) testRatingMapping[_smartContractTestToEvaluate].twoPoints++;\n\n        checkSwarmIntelligence(_smartContractTestToEvaluate);\n    }\n\n    function getTests() public view onlyVerifiedProgrammer returns (address[] memory) {\n        return tests;\n    }\n\n    // verified programmer could suggest an amount the owner should pay\n    function sendBestWeiOffer(uint256 _weiAmount) public onlyVerifiedProgrammer {\n        require(alreadyOffered[msg.sender] == false, \"You already offered a wei amount to the owner.\");\n        alreadyOffered[msg.sender] = true;\n        bestWeiOffers.push(_weiAmount);\n    }\n\n    // smart contract owner could see the price suggestions\n    // only accessible because others should not see which price a verified programmer would pay\n    function getBestWeiOffers() public view onlyOwner returns (uint256[] memory) {\n        return bestWeiOffers;\n    }\n\n    // that others could see what the reward is\n    function getRewardWalletAddress() public view returns(address) {\n        return wallet;\n    }\n\n    function isContract(address _addr) internal view returns (bool) {\n        uint size;\n        assembly { size := extcodesize(_addr) }\n        return size > 0;\n    }\n}\n",
  "sourcePath": "/home/chralt/GitProjects/DecentralizedCodeVerification/contracts/SmartContractVerificator.sol",
  "compiler": {
    "name": "solc",
    "version": "0.6.2+commit.bacdbe57.Emscripten.clang"
  },
  "schemaVersion": "3.0.23",
  "updatedAt": "2020-03-01T19:23:00.275Z",
  "devdoc": {
    "methods": {}
  },
  "userdoc": {
    "methods": {}
  }
}