{
  "contractName": "Verificator",
  "abi": [
    {
      "inputs": [],
      "stateMutability": "nonpayable",
      "type": "constructor"
    },
    {
      "inputs": [
        {
          "internalType": "address",
          "name": "_addr",
          "type": "address"
        }
      ],
      "name": "isProgrammerVerified",
      "outputs": [
        {
          "internalType": "bool",
          "name": "",
          "type": "bool"
        }
      ],
      "stateMutability": "view",
      "type": "function"
    },
    {
      "inputs": [
        {
          "internalType": "address",
          "name": "_addr",
          "type": "address"
        }
      ],
      "name": "getVerifiedProgrammerPoints",
      "outputs": [
        {
          "internalType": "uint256",
          "name": "",
          "type": "uint256"
        }
      ],
      "stateMutability": "view",
      "type": "function"
    },
    {
      "inputs": [
        {
          "internalType": "address",
          "name": "_addr",
          "type": "address"
        }
      ],
      "name": "isProgrammerAllowedToTest",
      "outputs": [
        {
          "internalType": "bool",
          "name": "",
          "type": "bool"
        }
      ],
      "stateMutability": "view",
      "type": "function"
    },
    {
      "inputs": [
        {
          "internalType": "address",
          "name": "_programmer",
          "type": "address"
        },
        {
          "internalType": "uint8",
          "name": "_positivePoints",
          "type": "uint8"
        }
      ],
      "name": "addProgrammerPoints",
      "outputs": [],
      "stateMutability": "nonpayable",
      "type": "function"
    },
    {
      "inputs": [
        {
          "internalType": "address",
          "name": "_programmer",
          "type": "address"
        },
        {
          "internalType": "uint8",
          "name": "_negativePoints",
          "type": "uint8"
        }
      ],
      "name": "removeProgrammerPoints",
      "outputs": [],
      "stateMutability": "nonpayable",
      "type": "function"
    },
    {
      "inputs": [
        {
          "internalType": "address",
          "name": "_programmer",
          "type": "address"
        }
      ],
      "name": "addVerifiedProgrammer",
      "outputs": [],
      "stateMutability": "nonpayable",
      "type": "function"
    },
    {
      "inputs": [
        {
          "internalType": "address",
          "name": "_smartContractVerificator",
          "type": "address"
        }
      ],
      "name": "addSmartContractVerificator",
      "outputs": [],
      "stateMutability": "nonpayable",
      "type": "function"
    },
    {
      "inputs": [
        {
          "internalType": "address",
          "name": "_smartContractVerificator",
          "type": "address"
        }
      ],
      "name": "deleteSmartContractVerificator",
      "outputs": [],
      "stateMutability": "nonpayable",
      "type": "function"
    }
  ],
  "bytecode": "0x608060405234801561001057600080fd5b50336000806101000a81548173ffffffffffffffffffffffffffffffffffffffff021916908373ffffffffffffffffffffffffffffffffffffffff160217905550610f0c806100606000396000f3fe608060405234801561001057600080fd5b50600436106100a5576000357c01000000000000000000000000000000000000000000000000000000009004806391036c371161007857806391036c37146101db578063a9b1c66214610237578063cfeaf4be14610288578063f97abf00146102e4576100a5565b80630b30735a146100aa57806372ea6efe146100fb57806375529ea01461015357806383d2ed5214610197575b600080fd5b6100f9600480360360408110156100c057600080fd5b81019080803573ffffffffffffffffffffffffffffffffffffffff169060200190929190803560ff169060200190929190505050610328565b005b61013d6004803603602081101561011157600080fd5b81019080803573ffffffffffffffffffffffffffffffffffffffff16906020019092919050505061050e565b6040518082815260200191505060405180910390f35b6101956004803603602081101561016957600080fd5b81019080803573ffffffffffffffffffffffffffffffffffffffff169060200190929190505050610557565b005b6101d9600480360360208110156101ad57600080fd5b81019080803573ffffffffffffffffffffffffffffffffffffffff1690602001909291905050506106f9565b005b61021d600480360360208110156101f157600080fd5b81019080803573ffffffffffffffffffffffffffffffffffffffff16906020019092919050505061089b565b604051808215151515815260200191505060405180910390f35b6102866004803603604081101561024d57600080fd5b81019080803573ffffffffffffffffffffffffffffffffffffffff169060200190929190803560ff1690602001909291905050506108f1565b005b6102ca6004803603602081101561029e57600080fd5b81019080803573ffffffffffffffffffffffffffffffffffffffff169060200190929190505050610b72565b604051808215151515815260200191505060405180910390f35b610326600480360360208110156102fa57600080fd5b81019080803573ffffffffffffffffffffffffffffffffffffffff169060200190929190505050610bce565b005b600160003373ffffffffffffffffffffffffffffffffffffffff1673ffffffffffffffffffffffffffffffffffffffff16815260200190815260200160002060009054906101000a900460ff166103ca576040517f08c379a000000000000000000000000000000000000000000000000000000000815260040180806020018281038252602e815260200180610dac602e913960400191505060405180910390fd5b6000600260008473ffffffffffffffffffffffffffffffffffffffff1673ffffffffffffffffffffffffffffffffffffffff1681526020019081526020016000205411610462576040517f08c379a000000000000000000000000000000000000000000000000000000000815260040180806020018281038252603d815260200180610dda603d913960400191505060405180910390fd5b8060ff16600260008473ffffffffffffffffffffffffffffffffffffffff1673ffffffffffffffffffffffffffffffffffffffff168152602001908152602001600020600082825401925050819055506001600360008473ffffffffffffffffffffffffffffffffffffffff1673ffffffffffffffffffffffffffffffffffffffff16815260200190815260200160002060006101000a81548160ff0219169083151502179055505050565b6000600260008373ffffffffffffffffffffffffffffffffffffffff1673ffffffffffffffffffffffffffffffffffffffff168152602001908152602001600020549050919050565b6000809054906101000a900473ffffffffffffffffffffffffffffffffffffffff1673ffffffffffffffffffffffffffffffffffffffff163373ffffffffffffffffffffffffffffffffffffffff16146105fc576040517f08c379a0000000000000000000000000000000000000000000000000000000008152600401808060200182810382526026815260200180610eb16026913960400191505060405180910390fd5b600160008273ffffffffffffffffffffffffffffffffffffffff1673ffffffffffffffffffffffffffffffffffffffff16815260200190815260200160002060009054906101000a900460ff1661069e576040517f08c379a000000000000000000000000000000000000000000000000000000000815260040180806020018281038252602a815260200180610e5d602a913960400191505060405180910390fd5b6000600160008373ffffffffffffffffffffffffffffffffffffffff1673ffffffffffffffffffffffffffffffffffffffff16815260200190815260200160002060006101000a81548160ff02191690831515021790555050565b6000809054906101000a900473ffffffffffffffffffffffffffffffffffffffff1673ffffffffffffffffffffffffffffffffffffffff163373ffffffffffffffffffffffffffffffffffffffff161461079e576040517f08c379a0000000000000000000000000000000000000000000000000000000008152600401808060200182810382526026815260200180610eb16026913960400191505060405180910390fd5b600160008273ffffffffffffffffffffffffffffffffffffffff1673ffffffffffffffffffffffffffffffffffffffff16815260200190815260200160002060009054906101000a900460ff1615610841576040517f08c379a000000000000000000000000000000000000000000000000000000000815260040180806020018281038252602a815260200180610e87602a913960400191505060405180910390fd5b60018060008373ffffffffffffffffffffffffffffffffffffffff1673ffffffffffffffffffffffffffffffffffffffff16815260200190815260200160002060006101000a81548160ff02191690831515021790555050565b6000600360008373ffffffffffffffffffffffffffffffffffffffff1673ffffffffffffffffffffffffffffffffffffffff16815260200190815260200160002060009054906101000a900460ff169050919050565b600160003373ffffffffffffffffffffffffffffffffffffffff1673ffffffffffffffffffffffffffffffffffffffff16815260200190815260200160002060009054906101000a900460ff16610993576040517f08c379a000000000000000000000000000000000000000000000000000000000815260040180806020018281038252602e815260200180610dac602e913960400191505060405180910390fd5b6000600260008473ffffffffffffffffffffffffffffffffffffffff1673ffffffffffffffffffffffffffffffffffffffff1681526020019081526020016000205411610a2b576040517f08c379a000000000000000000000000000000000000000000000000000000000815260040180806020018281038252603d815260200180610dda603d913960400191505060405180910390fd5b6000600260008473ffffffffffffffffffffffffffffffffffffffff1673ffffffffffffffffffffffffffffffffffffffff168152602001908152602001600020549050808260ff161115610ac4576000600260008573ffffffffffffffffffffffffffffffffffffffff1673ffffffffffffffffffffffffffffffffffffffff16815260200190815260200160002081905550610b15565b8160ff16600260008573ffffffffffffffffffffffffffffffffffffffff1673ffffffffffffffffffffffffffffffffffffffff168152602001908152602001600020600082825403925050819055505b6000600360008573ffffffffffffffffffffffffffffffffffffffff1673ffffffffffffffffffffffffffffffffffffffff16815260200190815260200160002060006101000a81548160ff021916908315150217905550505050565b600080600260008473ffffffffffffffffffffffffffffffffffffffff1673ffffffffffffffffffffffffffffffffffffffff168152602001908152602001600020541115610bc45760019050610bc9565b600090505b919050565b6000809054906101000a900473ffffffffffffffffffffffffffffffffffffffff1673ffffffffffffffffffffffffffffffffffffffff163373ffffffffffffffffffffffffffffffffffffffff1614610c73576040517f08c379a0000000000000000000000000000000000000000000000000000000008152600401808060200182810382526026815260200180610eb16026913960400191505060405180910390fd5b6000600260008373ffffffffffffffffffffffffffffffffffffffff1673ffffffffffffffffffffffffffffffffffffffff1681526020019081526020016000205414610d0b576040517f08c379a0000000000000000000000000000000000000000000000000000000008152600401808060200182810382526046815260200180610e176046913960600191505060405180910390fd5b600a600260008373ffffffffffffffffffffffffffffffffffffffff1673ffffffffffffffffffffffffffffffffffffffff168152602001908152602001600020819055506001600360008373ffffffffffffffffffffffffffffffffffffffff1673ffffffffffffffffffffffffffffffffffffffff16815260200190815260200160002060006101000a81548160ff0219169083151502179055505056fe4f6e6c792063616c6c61626c65206279206120736d61727420636f6e7472616374207665726966696361746f722e5370656369666965642061646472657373206973206e6f7420696e20746865206c697374206f662076657269666965642070726f6772616d6d6572732e50726f6772616d6d6572206164647265737320697320616c726561647920696e207468652076657269666965642070726f6772616d6d65722061646472657373206c6973742e536d61727420636f6e7472616374207665726966696361746f7220646f6573206e6f742065786973742e536d61727420636f6e7472616374207665726966696361746f7220616c7265616479206578697374732e596f75722061646472657373206973206e6f7420746865206f776e6572206164647265737321a2646970667358221220c4f0c9e738c92beba5f5cf5f406010aacaed6b917effe61de17d2458fdab7b1164736f6c63430006020033",
  "source": "pragma solidity ^0.6.2;\n\ncontract Verificator {\n    address owner;\n\n    mapping(address => bool) smartContractVerificatorExistanceMapping;\n    mapping(address => uint) verifiedProgrammerPointsMapping;\n    mapping(address => bool) goodProgrammerMapping;\n    // at the beginning each new verified programmer gets 10 start points\n    uint constant INITIAL_START_POINTS = 10;\n\n    modifier onlyOwner() virtual {\n        require(msg.sender == owner, \"Your address is not the owner address!\");\n        _;\n    }\n\n    modifier onlySmartContractVerificator() {\n        // TODO this address should be check that it is a smart contract verificator of this enterprise!\n        require(smartContractVerificatorExistanceMapping[msg.sender], \"Only callable by a smart contract verificator.\");\n        _;\n    }\n\n    constructor() public {\n        owner = msg.sender;\n    }\n\n    // test if one address is in the verified programmer list\n    function isProgrammerVerified(address _addr) public view returns(bool) {\n        if (verifiedProgrammerPointsMapping[_addr] > 0) return true;\n        return false;\n    }\n\n    function getVerifiedProgrammerPoints(address _addr) public view returns(uint) {\n        return verifiedProgrammerPointsMapping[_addr];\n    }\n\n    function isProgrammerAllowedToTest(address _addr) public view returns(bool) {\n        return goodProgrammerMapping[_addr];\n    }\n\n    // should get called by the smart contract verificator!\n    function addProgrammerPoints(address _programmer, uint8 _positivePoints) public onlySmartContractVerificator {\n        require(verifiedProgrammerPointsMapping[_programmer] > 0, \"Specified address is not in the list of verified programmers.\");\n        verifiedProgrammerPointsMapping[_programmer] += _positivePoints;\n        goodProgrammerMapping[_programmer] = true;\n    }\n\n    // should get called by the smart contract verificator!\n    function removeProgrammerPoints(address _programmer, uint8 _negativePoints) public onlySmartContractVerificator {\n        require(verifiedProgrammerPointsMapping[_programmer] > 0, \"Specified address is not in the list of verified programmers.\");\n        uint verifiedProgrammerPoints = verifiedProgrammerPointsMapping[_programmer];\n        if (_negativePoints > verifiedProgrammerPoints) {\n            verifiedProgrammerPointsMapping[_programmer] = 0;\n        } else {\n            // remove points\n            verifiedProgrammerPointsMapping[_programmer] -= _negativePoints;\n        }\n        goodProgrammerMapping[_programmer] = false;\n    }\n\n    function addVerifiedProgrammer(address _programmer) public onlyOwner {\n        require(verifiedProgrammerPointsMapping[_programmer] == 0, \"Programmer address is already in the verified programmer address list.\");\n        verifiedProgrammerPointsMapping[_programmer] = INITIAL_START_POINTS;\n        goodProgrammerMapping[_programmer] = true;\n    }\n\n    function addSmartContractVerificator(address _smartContractVerificator) public onlyOwner {\n        require(!smartContractVerificatorExistanceMapping[_smartContractVerificator], \"Smart contract verificator already exists.\");\n        smartContractVerificatorExistanceMapping[_smartContractVerificator] = true;\n    }\n\n    function deleteSmartContractVerificator(address _smartContractVerificator) public onlyOwner {\n        require(smartContractVerificatorExistanceMapping[_smartContractVerificator], \"Smart contract verificator does not exist.\");\n        smartContractVerificatorExistanceMapping[_smartContractVerificator] = false;\n    }\n}\n",
  "sourcePath": "/home/chralt/GitProjects/DecentralizedCodeVerification/contracts/Verificator.sol",
  "compiler": {
    "name": "solc",
    "version": "0.6.2+commit.bacdbe57.Emscripten.clang"
  },
  "schemaVersion": "3.0.23",
  "updatedAt": "2020-03-01T19:23:00.300Z",
  "devdoc": {
    "methods": {}
  },
  "userdoc": {
    "methods": {}
  }
}